{"abi":[{"inputs":[{"internalType":"address","name":"_priceFeedAddress","type":"address"},{"internalType":"address","name":"_vrfCoordinatorV2","type":"address"},{"internalType":"bytes32","name":"_gasLane","type":"bytes32"},{"internalType":"uint64","name":"_subscriptionId","type":"uint64"},{"internalType":"uint32","name":"_callbackGasLimit","type":"uint32"},{"internalType":"uint256","name":"_interval","type":"uint256"}],"stateMutability":"nonpayable","type":"constructor","name":"constructor"},{"inputs":[],"name":"Lottery__CantJoinClosed","type":"error"},{"inputs":[],"name":"Lottery__NFTValueNotMatch","type":"error"},{"inputs":[],"name":"Lottery__NftValueTooLow","type":"error"},{"inputs":[{"internalType":"uint256","name":"treasuryBalance","type":"uint256"},{"internalType":"uint256","name":"playersLength","type":"uint256"},{"internalType":"uint256","name":"lotteryState","type":"uint256"}],"name":"Lottery__UpKeepNotNeeded","type":"error"},{"inputs":[],"name":"Lottery__transferTreasuryFailed","type":"error"},{"inputs":[{"internalType":"address","name":"have","type":"address"},{"internalType":"address","name":"want","type":"address"}],"name":"OnlyCoordinatorCanFulfill","type":"error"},{"anonymous":false,"inputs":[{"indexed":true,"internalType":"address","name":"player","type":"address"},{"indexed":true,"internalType":"address","name":"collectionAddress","type":"address"},{"indexed":true,"internalType":"uint256","name":"tokenId","type":"uint256"}],"name":"LotteryEnter","type":"event"},{"anonymous":false,"inputs":[{"indexed":true,"internalType":"address","name":"previousOwner","type":"address"},{"indexed":true,"internalType":"address","name":"newOwner","type":"address"}],"name":"OwnershipTransferred","type":"event"},{"anonymous":false,"inputs":[{"indexed":false,"internalType":"uint256","name":"requestId","type":"uint256"}],"name":"requestedLotteryWinner","type":"event"},{"anonymous":false,"inputs":[{"indexed":true,"internalType":"address","name":"winner","type":"address"}],"name":"winnerPicked","type":"event"},{"inputs":[{"internalType":"bytes","name":"","type":"bytes"}],"name":"checkUpkeep","outputs":[{"internalType":"bool","name":"upKeepNeeded","type":"bool"},{"internalType":"bytes","name":"","type":"bytes"}],"stateMutability":"view","type":"function"},{"inputs":[{"internalType":"address","name":"_collectionAddress","type":"address"},{"internalType":"uint256","name":"_tokenId","type":"uint256"}],"name":"enterLottery","outputs":[],"stateMutability":"payable","type":"function"},{"inputs":[],"name":"getEntranceFee","outputs":[{"internalType":"uint256","name":"","type":"uint256"}],"stateMutability":"view","type":"function"},{"inputs":[],"name":"getLatestTimeStamp","outputs":[{"internalType":"uint256","name":"","type":"uint256"}],"stateMutability":"view","type":"function"},{"inputs":[],"name":"getLotteryState","outputs":[{"internalType":"enum Lottery.LOTTERY_STATE","name":"","type":"uint8"}],"stateMutability":"view","type":"function"},{"inputs":[],"name":"getLotteryTreasury","outputs":[{"internalType":"uint256","name":"","type":"uint256"}],"stateMutability":"view","type":"function"},{"inputs":[],"name":"getNFTValue","outputs":[{"internalType":"uint256","name":"","type":"uint256"}],"stateMutability":"pure","type":"function"},{"inputs":[],"name":"getNumOfParticipants","outputs":[{"internalType":"uint256","name":"","type":"uint256"}],"stateMutability":"view","type":"function"},{"inputs":[],"name":"getNumWords","outputs":[{"internalType":"uint256","name":"","type":"uint256"}],"stateMutability":"pure","type":"function"},{"inputs":[{"internalType":"uint256","name":"index","type":"uint256"}],"name":"getPlayer","outputs":[{"internalType":"address","name":"","type":"address"}],"stateMutability":"view","type":"function"},{"inputs":[],"name":"getRecenetWinner","outputs":[{"internalType":"address","name":"","type":"address"}],"stateMutability":"view","type":"function"},{"inputs":[],"name":"getRequestConfirmations","outputs":[{"internalType":"uint256","name":"","type":"uint256"}],"stateMutability":"pure","type":"function"},{"inputs":[],"name":"getTreasuryAvg","outputs":[{"internalType":"uint256","name":"","type":"uint256"}],"stateMutability":"nonpayable","type":"function"},{"inputs":[],"name":"owner","outputs":[{"internalType":"address","name":"","type":"address"}],"stateMutability":"view","type":"function"},{"inputs":[{"internalType":"bytes","name":"","type":"bytes"}],"name":"performUpkeep","outputs":[],"stateMutability":"nonpayable","type":"function"},{"inputs":[{"internalType":"uint256","name":"requestId","type":"uint256"},{"internalType":"uint256[]","name":"randomWords","type":"uint256[]"}],"name":"rawFulfillRandomWords","outputs":[],"stateMutability":"nonpayable","type":"function"},{"inputs":[],"name":"renounceOwnership","outputs":[],"stateMutability":"nonpayable","type":"function"},{"inputs":[{"internalType":"uint256","name":"","type":"uint256"}],"name":"s_tresury","outputs":[{"internalType":"address","name":"_tokenAddress","type":"address"},{"internalType":"uint256","name":"_tokenId","type":"uint256"},{"internalType":"address","name":"_owner","type":"address"}],"stateMutability":"view","type":"function"},{"inputs":[{"internalType":"address","name":"_collectionAddress","type":"address"},{"internalType":"uint256","name":"_tokenId","type":"uint256"},{"internalType":"uint256","name":"_value","type":"uint256"}],"name":"setNFTValue","outputs":[],"stateMutability":"nonpayable","type":"function"},{"inputs":[{"internalType":"address","name":"newOwner","type":"address"}],"name":"transferOwnership","outputs":[],"stateMutability":"nonpayable","type":"function"}],"bytecode":"6101606040523480156200001257600080fd5b50604051620015b0380380620015b083398101604081905262000035916200012a565b6001600160a01b0385166080526200004d33620000bd565b6801158e460913d0000061012052600380546001600160a01b0319166001600160a01b0397881617905593909416610100526004805460ff60a01b1916600160a01b17905560a0919091526001600160401b031660c05263ffffffff90911660e0524260055561014052620001b4565b600080546001600160a01b038381166001600160a01b0319831681178455604051919092169283917f8be0079c531659141344cd1fd0a4f28419497f9722a3daafe3b4186f6b6457e09190a35050565b80516001600160a01b03811681146200012557600080fd5b919050565b60008060008060008060c087890312156200014457600080fd5b6200014f876200010d565b95506200015f602088016200010d565b6040880151606089015191965094506001600160401b03811681146200018457600080fd5b608088015190935063ffffffff811681146200019f57600080fd5b8092505060a087015190509295509295509295565b60805160a05160c05160e0516101005161012051610140516113936200021d6000396000610a1201526000818161041c01526104de01526000610899015260006108680152600061083501526000610806015260008181610703015261074501526113936000f3fe60806040526004361061011f5760003560e01c80636b68c03c116100a0578063a97e1f2811610064578063a97e1f28146102b7578063b7a832af14610301578063e55ae4e81461031f578063e9d513e41461033f578063f2fde38b1461035f57600080fd5b80636b68c03c1461021b5780636e04ff0d14610242578063715018a6146102705780637a2d1e21146101c95780638da5cb5b1461028557600080fd5b80634585e33b116100e75780634585e33b146101a957806353a2c19a146101c95780635481bbcd146101dd5780635d659408146101f25780635f1b0fd81461020757600080fd5b806309bc33a714610124578063194b78f81461014c5780631fe543e31461016157806324c45b1e14610181578063320229eb14610194575b600080fd5b34801561013057600080fd5b5061013961037f565b6040519081526020015b60405180910390f35b61015f61015a366004610ed2565b61045b565b005b34801561016d57600080fd5b5061015f61017c366004610f43565b6106f8565b34801561018d57600080fd5b5047610139565b3480156101a057600080fd5b50600554610139565b3480156101b557600080fd5b5061015f6101c4366004610ff5565b610785565b3480156101d557600080fd5b506001610139565b3480156101e957600080fd5b50600254610139565b3480156101fe57600080fd5b5061013961094f565b34801561021357600080fd5b506003610139565b34801561022757600080fd5b50600454600160a01b900460ff16604051610143919061107d565b34801561024e57600080fd5b5061026261025d3660046110a5565b6109e7565b60405161014392919061113a565b34801561027c57600080fd5b5061015f610a94565b34801561029157600080fd5b506000546001600160a01b03165b6040516001600160a01b039091168152602001610143565b3480156102c357600080fd5b506102d76102d2366004611199565b610aa8565b604080516001600160a01b0394851681526020810193909352921691810191909152606001610143565b34801561030d57600080fd5b506004546001600160a01b031661029f565b34801561032b57600080fd5b5061029f61033a366004611199565b610ae6565b34801561034b57600080fd5b5061015f61035a3660046111b2565b610b16565b34801561036b57600080fd5b5061015f61037a3660046111e5565b610b23565b600080600360009054906101000a90046001600160a01b03166001600160a01b031663feaf968c6040518163ffffffff1660e01b815260040160a060405180830381865afa1580156103d5573d6000803e3d6000fd5b505050506040513d601f19601f820116820180604052508101906103f99190611221565b5050509150506000816402540be4006104129190611287565b90506000816104497f0000000000000000000000000000000000000000000000000000000000000000670de0b6b3a7640000611287565b61045391906112bc565b949350505050565b6001600454600160a01b900460ff16600281111561047b5761047b611067565b141561049a576040516316d60d6560e11b815260040160405180910390fd5b600180546001600160a01b0384166001600160a01b0319918216811790925560068054821690921790915560078290556008805490911633179055600954610522577f000000000000000000000000000000000000000000000000000000000000000060011061051d57604051631bfbb56160e01b815260040160405180910390fd5b61056f565b610552600161052f61094f565b61053a9060556112d0565b61054261094f565b61054d9060736112d0565b610b9c565b61056f57604051639fd0f74360e01b815260040160405180910390fd5b6001546040516323b872dd60e01b8152336004820152306024820152604481018390526001600160a01b03909116906323b872dd90606401600060405180830381600087803b1580156105c157600080fd5b505af11580156105d5573d6000803e3d6000fd5b505060098054600181810190925560065460039091027f6e1540171b6c0c960b71a7020d9f60077f6af931a8bbf590da0223dacf75c7af810180546001600160a01b03199081166001600160a01b03948516179091556007547f6e1540171b6c0c960b71a7020d9f60077f6af931a8bbf590da0223dacf75c7b08301556008547f6e1540171b6c0c960b71a7020d9f60077f6af931a8bbf590da0223dacf75c7b1909201805482169284169290921790915560028054938401815560009081527f405787fa12a823e0f2b7631cc41b3ba8828b3321ca811111fa75cd3aa3bb5ace9093018054909116339081179091556040518695509187169350917f8a55a3fc25c5da9cee33cc44a5e2f374da2c9cf5deb3ce9a346aa77e464700bc91a45050565b336001600160a01b037f000000000000000000000000000000000000000000000000000000000000000016146107775760405163073e64fd60e21b81523360048201526001600160a01b037f00000000000000000000000000000000000000000000000000000000000000001660248201526044015b60405180910390fd5b6107818282610bbf565b5050565b6040805160008082526020820190925261079e906109e7565b509050806107f757600954600280546004549091600160a01b90910460ff16908111156107cd576107cd611067565b60405163a9e3cfef60e01b815260048101939093526024830191909152604482015260640161076e565b6040516305d3b1d360e41b81527f0000000000000000000000000000000000000000000000000000000000000000600482015267ffffffffffffffff7f00000000000000000000000000000000000000000000000000000000000000001660248201526003604482015263ffffffff7f0000000000000000000000000000000000000000000000000000000000000000166064820152600160848201526000907f00000000000000000000000000000000000000000000000000000000000000006001600160a01b031690635d3b1d309060a4016020604051808303816000875af11580156108ea573d6000803e3d6000fd5b505050506040513d601f19601f8201168201806040525081019061090e91906112e4565b90507f8436886e362e85384c64d5af46721d434cb451102c48870819d9f8420f5531768160405161094191815260200190565b60405180910390a150505050565b600080805b60095481116109e15760098181548110610970576109706112fd565b600091825260209091206003909102018054600680546001600160a01b03199081166001600160a01b039384161790915560018301546007556002909201546008805490931691161790556109c3600190565b6109cd9083611313565b9150806109d98161132b565b915050610954565b50919050565b600060608180600454600160a01b900460ff166002811115610a0b57610a0b611067565b14905060007f000000000000000000000000000000000000000000000000000000000000000060055442610a3f9190611346565b600254600954929091101592501515901515838015610a5b5750825b8015610a645750815b8015610a6d5750805b604080518082019091526002815261060f60f31b6020820152909890975095505050505050565b610a9c610d92565b610aa66000610dec565b565b60098181548110610ab857600080fd5b60009182526020909120600390910201805460018201546002909201546001600160a01b0391821693501683565b600060028281548110610afb57610afb6112fd565b6000918252602090912001546001600160a01b031692915050565b610b1e610d92565b505050565b610b2b610d92565b6001600160a01b038116610b905760405162461bcd60e51b815260206004820152602660248201527f4f776e61626c653a206e6577206f776e657220697320746865207a65726f206160448201526564647265737360d01b606482015260840161076e565b610b9981610dec565b50565b6000818310610baa57600080fd5b82841015801561045357505090911115919050565b6002600454600160a01b900460ff166002811115610bdf57610bdf611067565b14610c1e5760405162461bcd60e51b815260206004820152600f60248201526e4e6f7420746865726520796574212160881b604482015260640161076e565b6000815111610c635760405162461bcd60e51b815260206004820152601160248201527052616e646f6d206e6f7420666f756e642160781b604482015260640161076e565b600060028054905082600081518110610c7e57610c7e6112fd565b6020026020010151610c9091906112d0565b905060028181548110610ca557610ca56112fd565b6000918252602082200154600480546001600160a81b0319166001600160a01b03909216918217905560405190917f794919b0f484b8e90b1b817ac7f880f846fbd8a9813dee2a378e820db094e3d191a26004546040516000916001600160a01b03169047908381818185875af1925050503d8060008114610d43576040519150601f19603f3d011682016040523d82523d6000602084013e610d48565b606091505b5050905080610d6a57604051639245f21560e01b815260040160405180910390fd5b6040805160008152602081019182905251610d8791600291610e3c565b505042600555505050565b6000546001600160a01b03163314610aa65760405162461bcd60e51b815260206004820181905260248201527f4f776e61626c653a2063616c6c6572206973206e6f7420746865206f776e6572604482015260640161076e565b600080546001600160a01b038381166001600160a01b0319831681178455604051919092169283917f8be0079c531659141344cd1fd0a4f28419497f9722a3daafe3b4186f6b6457e09190a35050565b828054828255906000526020600020908101928215610e91579160200282015b82811115610e9157825182546001600160a01b0319166001600160a01b03909116178255602090920191600190910190610e5c565b50610e9d929150610ea1565b5090565b5b80821115610e9d5760008155600101610ea2565b80356001600160a01b0381168114610ecd57600080fd5b919050565b60008060408385031215610ee557600080fd5b610eee83610eb6565b946020939093013593505050565b634e487b7160e01b600052604160045260246000fd5b604051601f8201601f1916810167ffffffffffffffff81118282101715610f3b57610f3b610efc565b604052919050565b60008060408385031215610f5657600080fd5b8235915060208084013567ffffffffffffffff80821115610f7657600080fd5b818601915086601f830112610f8a57600080fd5b813581811115610f9c57610f9c610efc565b8060051b9150610fad848301610f12565b8181529183018401918481019089841115610fc757600080fd5b938501935b83851015610fe557843582529385019390850190610fcc565b8096505050505050509250929050565b6000806020838503121561100857600080fd5b823567ffffffffffffffff8082111561102057600080fd5b818501915085601f83011261103457600080fd5b81358181111561104357600080fd5b86602082850101111561105557600080fd5b60209290920196919550909350505050565b634e487b7160e01b600052602160045260246000fd5b602081016003831061109f57634e487b7160e01b600052602160045260246000fd5b91905290565b600060208083850312156110b857600080fd5b823567ffffffffffffffff808211156110d057600080fd5b818501915085601f8301126110e457600080fd5b8135818111156110f6576110f6610efc565b611108601f8201601f19168501610f12565b9150808252868482850101111561111e57600080fd5b8084840185840137600090820190930192909252509392505050565b821515815260006020604081840152835180604085015260005b8181101561117057858101830151858201606001528201611154565b81811115611182576000606083870101525b50601f01601f191692909201606001949350505050565b6000602082840312156111ab57600080fd5b5035919050565b6000806000606084860312156111c757600080fd5b6111d084610eb6565b95602085013595506040909401359392505050565b6000602082840312156111f757600080fd5b61120082610eb6565b9392505050565b805169ffffffffffffffffffff81168114610ecd57600080fd5b600080600080600060a0868803121561123957600080fd5b61124286611207565b945060208601519350604086015192506060860151915061126560808701611207565b90509295509295909350565b634e487b7160e01b600052601160045260246000fd5b60008160001904831182151516156112a1576112a1611271565b500290565b634e487b7160e01b600052601260045260246000fd5b6000826112cb576112cb6112a6565b500490565b6000826112df576112df6112a6565b500690565b6000602082840312156112f657600080fd5b5051919050565b634e487b7160e01b600052603260045260246000fd5b6000821982111561132657611326611271565b500190565b600060001982141561133f5761133f611271565b5060010190565b60008282101561135857611358611271565b50039056fea2646970667358221220e0d7218ec4c5108dcb0aa88196e2695307f24209dc51f4cf46c8eb287a7d75d964736f6c634300080c0033","bytecodeSha1":"a5f9a829dac2f12e8a6250a3374811f40d083a71","compiler":{"evm_version":"istanbul","optimizer":{"enabled":true,"runs":200},"version":"0.8.12+commit.f00d7308"},"contractName":"Lottery","language":"Solidity","natspec":{"kind":"dev","methods":{"checkUpkeep(bytes)":{"notice":"dev: This is the function that the chainlink keeper will look to return true to update state The following should be true in order to return true: 1. The time Interval should have passed 2. The Lottery should have at least one NFT added to treasury and 1 player 3. The Chainlink subscription is funded with Link Token"},"owner()":{"details":"Returns the address of the current owner."},"performUpkeep(bytes)":{"notice":"dev: This the function that will perform the upkeep based upon interval and is acting as endLottery function"},"renounceOwnership()":{"details":"Leaves the contract without owner. It will not be possible to call `onlyOwner` functions anymore. Can only be called by the current owner. NOTE: Renouncing ownership will leave the contract without an owner, thereby removing any functionality that is only available to the owner."},"transferOwnership(address)":{"details":"Transfers ownership of the contract to a new account (`newOwner`). Can only be called by the current owner."}},"version":1},"opcodes":"PUSH1 0x80 PUSH1 0x40 MSTORE PUSH1 0x4 CALLDATASIZE LT PUSH2 0x11F JUMPI PUSH1 0x0 CALLDATALOAD PUSH1 0xE0 SHR DUP1 PUSH4 0x6B68C03C GT PUSH2 0xA0 JUMPI DUP1 PUSH4 0xA97E1F28 GT PUSH2 0x64 JUMPI DUP1 PUSH4 0xA97E1F28 EQ PUSH2 0x2B7 JUMPI DUP1 PUSH4 0xB7A832AF EQ PUSH2 0x301 JUMPI DUP1 PUSH4 0xE55AE4E8 EQ PUSH2 0x31F JUMPI DUP1 PUSH4 0xE9D513E4 EQ PUSH2 0x33F JUMPI DUP1 PUSH4 0xF2FDE38B EQ PUSH2 0x35F JUMPI PUSH1 0x0 DUP1 REVERT JUMPDEST DUP1 PUSH4 0x6B68C03C EQ PUSH2 0x21B JUMPI DUP1 PUSH4 0x6E04FF0D EQ PUSH2 0x242 JUMPI DUP1 PUSH4 0x715018A6 EQ PUSH2 0x270 JUMPI DUP1 PUSH4 0x7A2D1E21 EQ PUSH2 0x1C9 JUMPI DUP1 PUSH4 0x8DA5CB5B EQ PUSH2 0x285 JUMPI PUSH1 0x0 DUP1 REVERT JUMPDEST DUP1 PUSH4 0x4585E33B GT PUSH2 0xE7 JUMPI DUP1 PUSH4 0x4585E33B EQ PUSH2 0x1A9 JUMPI DUP1 PUSH4 0x53A2C19A EQ PUSH2 0x1C9 JUMPI DUP1 PUSH4 0x5481BBCD EQ PUSH2 0x1DD JUMPI DUP1 PUSH4 0x5D659408 EQ PUSH2 0x1F2 JUMPI DUP1 PUSH4 0x5F1B0FD8 EQ PUSH2 0x207 JUMPI PUSH1 0x0 DUP1 REVERT JUMPDEST DUP1 PUSH4 0x9BC33A7 EQ PUSH2 0x124 JUMPI DUP1 PUSH4 0x194B78F8 EQ PUSH2 0x14C JUMPI DUP1 PUSH4 0x1FE543E3 EQ PUSH2 0x161 JUMPI DUP1 PUSH4 0x24C45B1E EQ PUSH2 0x181 JUMPI DUP1 PUSH4 0x320229EB EQ PUSH2 0x194 JUMPI JUMPDEST PUSH1 0x0 DUP1 REVERT JUMPDEST CALLVALUE DUP1 ISZERO PUSH2 0x130 JUMPI PUSH1 0x0 DUP1 REVERT JUMPDEST POP PUSH2 0x139 PUSH2 0x37F JUMP JUMPDEST PUSH1 0x40 MLOAD SWAP1 DUP2 MSTORE PUSH1 0x20 ADD JUMPDEST PUSH1 0x40 MLOAD DUP1 SWAP2 SUB SWAP1 RETURN JUMPDEST PUSH2 0x15F PUSH2 0x15A CALLDATASIZE PUSH1 0x4 PUSH2 0xED2 JUMP JUMPDEST PUSH2 0x45B JUMP JUMPDEST STOP JUMPDEST CALLVALUE DUP1 ISZERO PUSH2 0x16D JUMPI PUSH1 0x0 DUP1 REVERT JUMPDEST POP PUSH2 0x15F PUSH2 0x17C CALLDATASIZE PUSH1 0x4 PUSH2 0xF43 JUMP JUMPDEST PUSH2 0x6F8 JUMP JUMPDEST CALLVALUE DUP1 ISZERO PUSH2 0x18D JUMPI PUSH1 0x0 DUP1 REVERT JUMPDEST POP SELFBALANCE PUSH2 0x139 JUMP JUMPDEST CALLVALUE DUP1 ISZERO PUSH2 0x1A0 JUMPI PUSH1 0x0 DUP1 REVERT JUMPDEST POP PUSH1 0x5 SLOAD PUSH2 0x139 JUMP JUMPDEST CALLVALUE DUP1 ISZERO PUSH2 0x1B5 JUMPI PUSH1 0x0 DUP1 REVERT JUMPDEST POP PUSH2 0x15F PUSH2 0x1C4 CALLDATASIZE PUSH1 0x4 PUSH2 0xFF5 JUMP JUMPDEST PUSH2 0x785 JUMP JUMPDEST CALLVALUE DUP1 ISZERO PUSH2 0x1D5 JUMPI PUSH1 0x0 DUP1 REVERT JUMPDEST POP PUSH1 0x1 PUSH2 0x139 JUMP JUMPDEST CALLVALUE DUP1 ISZERO PUSH2 0x1E9 JUMPI PUSH1 0x0 DUP1 REVERT JUMPDEST POP PUSH1 0x2 SLOAD PUSH2 0x139 JUMP JUMPDEST CALLVALUE DUP1 ISZERO PUSH2 0x1FE JUMPI PUSH1 0x0 DUP1 REVERT JUMPDEST POP PUSH2 0x139 PUSH2 0x94F JUMP JUMPDEST CALLVALUE DUP1 ISZERO PUSH2 0x213 JUMPI PUSH1 0x0 DUP1 REVERT JUMPDEST POP PUSH1 0x3 PUSH2 0x139 JUMP JUMPDEST CALLVALUE DUP1 ISZERO PUSH2 0x227 JUMPI PUSH1 0x0 DUP1 REVERT JUMPDEST POP PUSH1 0x4 SLOAD PUSH1 0x1 PUSH1 0xA0 SHL SWAP1 DIV PUSH1 0xFF AND PUSH1 0x40 MLOAD PUSH2 0x143 SWAP2 SWAP1 PUSH2 0x107D JUMP JUMPDEST CALLVALUE DUP1 ISZERO PUSH2 0x24E JUMPI PUSH1 0x0 DUP1 REVERT JUMPDEST POP PUSH2 0x262 PUSH2 0x25D CALLDATASIZE PUSH1 0x4 PUSH2 0x10A5 JUMP JUMPDEST PUSH2 0x9E7 JUMP JUMPDEST PUSH1 0x40 MLOAD PUSH2 0x143 SWAP3 SWAP2 SWAP1 PUSH2 0x113A JUMP JUMPDEST CALLVALUE DUP1 ISZERO PUSH2 0x27C JUMPI PUSH1 0x0 DUP1 REVERT JUMPDEST POP PUSH2 0x15F PUSH2 0xA94 JUMP JUMPDEST CALLVALUE DUP1 ISZERO PUSH2 0x291 JUMPI PUSH1 0x0 DUP1 REVERT JUMPDEST POP PUSH1 0x0 SLOAD PUSH1 0x1 PUSH1 0x1 PUSH1 0xA0 SHL SUB AND JUMPDEST PUSH1 0x40 MLOAD PUSH1 0x1 PUSH1 0x1 PUSH1 0xA0 SHL SUB SWAP1 SWAP2 AND DUP2 MSTORE PUSH1 0x20 ADD PUSH2 0x143 JUMP JUMPDEST CALLVALUE DUP1 ISZERO PUSH2 0x2C3 JUMPI PUSH1 0x0 DUP1 REVERT JUMPDEST POP PUSH2 0x2D7 PUSH2 0x2D2 CALLDATASIZE PUSH1 0x4 PUSH2 0x1199 JUMP JUMPDEST PUSH2 0xAA8 JUMP JUMPDEST PUSH1 0x40 DUP1 MLOAD PUSH1 0x1 PUSH1 0x1 PUSH1 0xA0 SHL SUB SWAP5 DUP6 AND DUP2 MSTORE PUSH1 0x20 DUP2 ADD SWAP4 SWAP1 SWAP4 MSTORE SWAP3 AND SWAP2 DUP2 ADD SWAP2 SWAP1 SWAP2 MSTORE PUSH1 0x60 ADD PUSH2 0x143 JUMP JUMPDEST CALLVALUE DUP1 ISZERO PUSH2 0x30D JUMPI PUSH1 0x0 DUP1 REVERT JUMPDEST POP PUSH1 0x4 SLOAD PUSH1 0x1 PUSH1 0x1 PUSH1 0xA0 SHL SUB AND PUSH2 0x29F JUMP JUMPDEST CALLVALUE DUP1 ISZERO PUSH2 0x32B JUMPI PUSH1 0x0 DUP1 REVERT JUMPDEST POP PUSH2 0x29F PUSH2 0x33A CALLDATASIZE PUSH1 0x4 PUSH2 0x1199 JUMP JUMPDEST PUSH2 0xAE6 JUMP JUMPDEST CALLVALUE DUP1 ISZERO PUSH2 0x34B JUMPI PUSH1 0x0 DUP1 REVERT JUMPDEST POP PUSH2 0x15F PUSH2 0x35A CALLDATASIZE PUSH1 0x4 PUSH2 0x11B2 JUMP JUMPDEST PUSH2 0xB16 JUMP JUMPDEST CALLVALUE DUP1 ISZERO PUSH2 0x36B JUMPI PUSH1 0x0 DUP1 REVERT JUMPDEST POP PUSH2 0x15F PUSH2 0x37A CALLDATASIZE PUSH1 0x4 PUSH2 0x11E5 JUMP JUMPDEST PUSH2 0xB23 JUMP JUMPDEST PUSH1 0x0 DUP1 PUSH1 0x3 PUSH1 0x0 SWAP1 SLOAD SWAP1 PUSH2 0x100 EXP SWAP1 DIV PUSH1 0x1 PUSH1 0x1 PUSH1 0xA0 SHL SUB AND PUSH1 0x1 PUSH1 0x1 PUSH1 0xA0 SHL SUB AND PUSH4 0xFEAF968C PUSH1 0x40 MLOAD DUP2 PUSH4 0xFFFFFFFF AND PUSH1 0xE0 SHL DUP2 MSTORE PUSH1 0x4 ADD PUSH1 0xA0 PUSH1 0x40 MLOAD DUP1 DUP4 SUB DUP2 DUP7 GAS STATICCALL ISZERO DUP1 ISZERO PUSH2 0x3D5 JUMPI RETURNDATASIZE PUSH1 0x0 DUP1 RETURNDATACOPY RETURNDATASIZE PUSH1 0x0 REVERT JUMPDEST POP POP POP POP PUSH1 0x40 MLOAD RETURNDATASIZE PUSH1 0x1F NOT PUSH1 0x1F DUP3 ADD AND DUP3 ADD DUP1 PUSH1 0x40 MSTORE POP DUP2 ADD SWAP1 PUSH2 0x3F9 SWAP2 SWAP1 PUSH2 0x1221 JUMP JUMPDEST POP POP POP SWAP2 POP POP PUSH1 0x0 DUP2 PUSH5 0x2540BE400 PUSH2 0x412 SWAP2 SWAP1 PUSH2 0x1287 JUMP JUMPDEST SWAP1 POP PUSH1 0x0 DUP2 PUSH2 0x449 PUSH32 0x0 PUSH8 0xDE0B6B3A7640000 PUSH2 0x1287 JUMP JUMPDEST PUSH2 0x453 SWAP2 SWAP1 PUSH2 0x12BC JUMP JUMPDEST SWAP5 SWAP4 POP POP POP POP JUMP JUMPDEST PUSH1 0x1 PUSH1 0x4 SLOAD PUSH1 0x1 PUSH1 0xA0 SHL SWAP1 DIV PUSH1 0xFF AND PUSH1 0x2 DUP2 GT ISZERO PUSH2 0x47B JUMPI PUSH2 0x47B PUSH2 0x1067 JUMP JUMPDEST EQ ISZERO PUSH2 0x49A JUMPI PUSH1 0x40 MLOAD PUSH4 0x16D60D65 PUSH1 0xE1 SHL DUP2 MSTORE PUSH1 0x4 ADD PUSH1 0x40 MLOAD DUP1 SWAP2 SUB SWAP1 REVERT JUMPDEST PUSH1 0x1 DUP1 SLOAD PUSH1 0x1 PUSH1 0x1 PUSH1 0xA0 SHL SUB DUP5 AND PUSH1 0x1 PUSH1 0x1 PUSH1 0xA0 SHL SUB NOT SWAP2 DUP3 AND DUP2 OR SWAP1 SWAP3 SSTORE PUSH1 0x6 DUP1 SLOAD DUP3 AND SWAP1 SWAP3 OR SWAP1 SWAP2 SSTORE PUSH1 0x7 DUP3 SWAP1 SSTORE PUSH1 0x8 DUP1 SLOAD SWAP1 SWAP2 AND CALLER OR SWAP1 SSTORE PUSH1 0x9 SLOAD PUSH2 0x522 JUMPI PUSH32 0x0 PUSH1 0x1 LT PUSH2 0x51D JUMPI PUSH1 0x40 MLOAD PUSH4 0x1BFBB561 PUSH1 0xE0 SHL DUP2 MSTORE PUSH1 0x4 ADD PUSH1 0x40 MLOAD DUP1 SWAP2 SUB SWAP1 REVERT JUMPDEST PUSH2 0x56F JUMP JUMPDEST PUSH2 0x552 PUSH1 0x1 PUSH2 0x52F PUSH2 0x94F JUMP JUMPDEST PUSH2 0x53A SWAP1 PUSH1 0x55 PUSH2 0x12D0 JUMP JUMPDEST PUSH2 0x542 PUSH2 0x94F JUMP JUMPDEST PUSH2 0x54D SWAP1 PUSH1 0x73 PUSH2 0x12D0 JUMP JUMPDEST PUSH2 0xB9C JUMP JUMPDEST PUSH2 0x56F JUMPI PUSH1 0x40 MLOAD PUSH4 0x9FD0F743 PUSH1 0xE0 SHL DUP2 MSTORE PUSH1 0x4 ADD PUSH1 0x40 MLOAD DUP1 SWAP2 SUB SWAP1 REVERT JUMPDEST PUSH1 0x1 SLOAD PUSH1 0x40 MLOAD PUSH4 0x23B872DD PUSH1 0xE0 SHL DUP2 MSTORE CALLER PUSH1 0x4 DUP3 ADD MSTORE ADDRESS PUSH1 0x24 DUP3 ADD MSTORE PUSH1 0x44 DUP2 ADD DUP4 SWAP1 MSTORE PUSH1 0x1 PUSH1 0x1 PUSH1 0xA0 SHL SUB SWAP1 SWAP2 AND SWAP1 PUSH4 0x23B872DD SWAP1 PUSH1 0x64 ADD PUSH1 0x0 PUSH1 0x40 MLOAD DUP1 DUP4 SUB DUP2 PUSH1 0x0 DUP8 DUP1 EXTCODESIZE ISZERO DUP1 ISZERO PUSH2 0x5C1 JUMPI PUSH1 0x0 DUP1 REVERT JUMPDEST POP GAS CALL ISZERO DUP1 ISZERO PUSH2 0x5D5 JUMPI RETURNDATASIZE PUSH1 0x0 DUP1 RETURNDATACOPY RETURNDATASIZE PUSH1 0x0 REVERT JUMPDEST POP POP PUSH1 0x9 DUP1 SLOAD PUSH1 0x1 DUP2 DUP2 ADD SWAP1 SWAP3 SSTORE PUSH1 0x6 SLOAD PUSH1 0x3 SWAP1 SWAP2 MUL PUSH32 0x6E1540171B6C0C960B71A7020D9F60077F6AF931A8BBF590DA0223DACF75C7AF DUP2 ADD DUP1 SLOAD PUSH1 0x1 PUSH1 0x1 PUSH1 0xA0 SHL SUB NOT SWAP1 DUP2 AND PUSH1 0x1 PUSH1 0x1 PUSH1 0xA0 SHL SUB SWAP5 DUP6 AND OR SWAP1 SWAP2 SSTORE PUSH1 0x7 SLOAD PUSH32 0x6E1540171B6C0C960B71A7020D9F60077F6AF931A8BBF590DA0223DACF75C7B0 DUP4 ADD SSTORE PUSH1 0x8 SLOAD PUSH32 0x6E1540171B6C0C960B71A7020D9F60077F6AF931A8BBF590DA0223DACF75C7B1 SWAP1 SWAP3 ADD DUP1 SLOAD DUP3 AND SWAP3 DUP5 AND SWAP3 SWAP1 SWAP3 OR SWAP1 SWAP2 SSTORE PUSH1 0x2 DUP1 SLOAD SWAP4 DUP5 ADD DUP2 SSTORE PUSH1 0x0 SWAP1 DUP2 MSTORE PUSH32 0x405787FA12A823E0F2B7631CC41B3BA8828B3321CA811111FA75CD3AA3BB5ACE SWAP1 SWAP4 ADD DUP1 SLOAD SWAP1 SWAP2 AND CALLER SWAP1 DUP2 OR SWAP1 SWAP2 SSTORE PUSH1 0x40 MLOAD DUP7 SWAP6 POP SWAP2 DUP8 AND SWAP4 POP SWAP2 PUSH32 0x8A55A3FC25C5DA9CEE33CC44A5E2F374DA2C9CF5DEB3CE9A346AA77E464700BC SWAP2 LOG4 POP POP JUMP JUMPDEST CALLER PUSH1 0x1 PUSH1 0x1 PUSH1 0xA0 SHL SUB PUSH32 0x0 AND EQ PUSH2 0x777 JUMPI PUSH1 0x40 MLOAD PUSH4 0x73E64FD PUSH1 0xE2 SHL DUP2 MSTORE CALLER PUSH1 0x4 DUP3 ADD MSTORE PUSH1 0x1 PUSH1 0x1 PUSH1 0xA0 SHL SUB PUSH32 0x0 AND PUSH1 0x24 DUP3 ADD MSTORE PUSH1 0x44 ADD JUMPDEST PUSH1 0x40 MLOAD DUP1 SWAP2 SUB SWAP1 REVERT JUMPDEST PUSH2 0x781 DUP3 DUP3 PUSH2 0xBBF JUMP JUMPDEST POP POP JUMP JUMPDEST PUSH1 0x40 DUP1 MLOAD PUSH1 0x0 DUP1 DUP3 MSTORE PUSH1 0x20 DUP3 ADD SWAP1 SWAP3 MSTORE PUSH2 0x79E SWAP1 PUSH2 0x9E7 JUMP JUMPDEST POP SWAP1 POP DUP1 PUSH2 0x7F7 JUMPI PUSH1 0x9 SLOAD PUSH1 0x2 DUP1 SLOAD PUSH1 0x4 SLOAD SWAP1 SWAP2 PUSH1 0x1 PUSH1 0xA0 SHL SWAP1 SWAP2 DIV PUSH1 0xFF AND SWAP1 DUP2 GT ISZERO PUSH2 0x7CD JUMPI PUSH2 0x7CD PUSH2 0x1067 JUMP JUMPDEST PUSH1 0x40 MLOAD PUSH4 0xA9E3CFEF PUSH1 0xE0 SHL DUP2 MSTORE PUSH1 0x4 DUP2 ADD SWAP4 SWAP1 SWAP4 MSTORE PUSH1 0x24 DUP4 ADD SWAP2 SWAP1 SWAP2 MSTORE PUSH1 0x44 DUP3 ADD MSTORE PUSH1 0x64 ADD PUSH2 0x76E JUMP JUMPDEST PUSH1 0x40 MLOAD PUSH4 0x5D3B1D3 PUSH1 0xE4 SHL DUP2 MSTORE PUSH32 0x0 PUSH1 0x4 DUP3 ADD MSTORE PUSH8 0xFFFFFFFFFFFFFFFF PUSH32 0x0 AND PUSH1 0x24 DUP3 ADD MSTORE PUSH1 0x3 PUSH1 0x44 DUP3 ADD MSTORE PUSH4 0xFFFFFFFF PUSH32 0x0 AND PUSH1 0x64 DUP3 ADD MSTORE PUSH1 0x1 PUSH1 0x84 DUP3 ADD MSTORE PUSH1 0x0 SWAP1 PUSH32 0x0 PUSH1 0x1 PUSH1 0x1 PUSH1 0xA0 SHL SUB AND SWAP1 PUSH4 0x5D3B1D30 SWAP1 PUSH1 0xA4 ADD PUSH1 0x20 PUSH1 0x40 MLOAD DUP1 DUP4 SUB DUP2 PUSH1 0x0 DUP8 GAS CALL ISZERO DUP1 ISZERO PUSH2 0x8EA JUMPI RETURNDATASIZE PUSH1 0x0 DUP1 RETURNDATACOPY RETURNDATASIZE PUSH1 0x0 REVERT JUMPDEST POP POP POP POP PUSH1 0x40 MLOAD RETURNDATASIZE PUSH1 0x1F NOT PUSH1 0x1F DUP3 ADD AND DUP3 ADD DUP1 PUSH1 0x40 MSTORE POP DUP2 ADD SWAP1 PUSH2 0x90E SWAP2 SWAP1 PUSH2 0x12E4 JUMP JUMPDEST SWAP1 POP PUSH32 0x8436886E362E85384C64D5AF46721D434CB451102C48870819D9F8420F553176 DUP2 PUSH1 0x40 MLOAD PUSH2 0x941 SWAP2 DUP2 MSTORE PUSH1 0x20 ADD SWAP1 JUMP JUMPDEST PUSH1 0x40 MLOAD DUP1 SWAP2 SUB SWAP1 LOG1 POP POP POP POP JUMP JUMPDEST PUSH1 0x0 DUP1 DUP1 JUMPDEST PUSH1 0x9 SLOAD DUP2 GT PUSH2 0x9E1 JUMPI PUSH1 0x9 DUP2 DUP2 SLOAD DUP2 LT PUSH2 0x970 JUMPI PUSH2 0x970 PUSH2 0x12FD JUMP JUMPDEST PUSH1 0x0 SWAP2 DUP3 MSTORE PUSH1 0x20 SWAP1 SWAP2 KECCAK256 PUSH1 0x3 SWAP1 SWAP2 MUL ADD DUP1 SLOAD PUSH1 0x6 DUP1 SLOAD PUSH1 0x1 PUSH1 0x1 PUSH1 0xA0 SHL SUB NOT SWAP1 DUP2 AND PUSH1 0x1 PUSH1 0x1 PUSH1 0xA0 SHL SUB SWAP4 DUP5 AND OR SWAP1 SWAP2 SSTORE PUSH1 0x1 DUP4 ADD SLOAD PUSH1 0x7 SSTORE PUSH1 0x2 SWAP1 SWAP3 ADD SLOAD PUSH1 0x8 DUP1 SLOAD SWAP1 SWAP4 AND SWAP2 AND OR SWAP1 SSTORE PUSH2 0x9C3 PUSH1 0x1 SWAP1 JUMP JUMPDEST PUSH2 0x9CD SWAP1 DUP4 PUSH2 0x1313 JUMP JUMPDEST SWAP2 POP DUP1 PUSH2 0x9D9 DUP2 PUSH2 0x132B JUMP JUMPDEST SWAP2 POP POP PUSH2 0x954 JUMP JUMPDEST POP SWAP2 SWAP1 POP JUMP JUMPDEST PUSH1 0x0 PUSH1 0x60 DUP2 DUP1 PUSH1 0x4 SLOAD PUSH1 0x1 PUSH1 0xA0 SHL SWAP1 DIV PUSH1 0xFF AND PUSH1 0x2 DUP2 GT ISZERO PUSH2 0xA0B JUMPI PUSH2 0xA0B PUSH2 0x1067 JUMP JUMPDEST EQ SWAP1 POP PUSH1 0x0 PUSH32 0x0 PUSH1 0x5 SLOAD TIMESTAMP PUSH2 0xA3F SWAP2 SWAP1 PUSH2 0x1346 JUMP JUMPDEST PUSH1 0x2 SLOAD PUSH1 0x9 SLOAD SWAP3 SWAP1 SWAP2 LT ISZERO SWAP3 POP ISZERO ISZERO SWAP1 ISZERO ISZERO DUP4 DUP1 ISZERO PUSH2 0xA5B JUMPI POP DUP3 JUMPDEST DUP1 ISZERO PUSH2 0xA64 JUMPI POP DUP2 JUMPDEST DUP1 ISZERO PUSH2 0xA6D JUMPI POP DUP1 JUMPDEST PUSH1 0x40 DUP1 MLOAD DUP1 DUP3 ADD SWAP1 SWAP2 MSTORE PUSH1 0x2 DUP2 MSTORE PUSH2 0x60F PUSH1 0xF3 SHL PUSH1 0x20 DUP3 ADD MSTORE SWAP1 SWAP9 SWAP1 SWAP8 POP SWAP6 POP POP POP POP POP POP JUMP JUMPDEST PUSH2 0xA9C PUSH2 0xD92 JUMP JUMPDEST PUSH2 0xAA6 PUSH1 0x0 PUSH2 0xDEC JUMP JUMPDEST JUMP JUMPDEST PUSH1 0x9 DUP2 DUP2 SLOAD DUP2 LT PUSH2 0xAB8 JUMPI PUSH1 0x0 DUP1 REVERT JUMPDEST PUSH1 0x0 SWAP2 DUP3 MSTORE PUSH1 0x20 SWAP1 SWAP2 KECCAK256 PUSH1 0x3 SWAP1 SWAP2 MUL ADD DUP1 SLOAD PUSH1 0x1 DUP3 ADD SLOAD PUSH1 0x2 SWAP1 SWAP3 ADD SLOAD PUSH1 0x1 PUSH1 0x1 PUSH1 0xA0 SHL SUB SWAP2 DUP3 AND SWAP4 POP AND DUP4 JUMP JUMPDEST PUSH1 0x0 PUSH1 0x2 DUP3 DUP2 SLOAD DUP2 LT PUSH2 0xAFB JUMPI PUSH2 0xAFB PUSH2 0x12FD JUMP JUMPDEST PUSH1 0x0 SWAP2 DUP3 MSTORE PUSH1 0x20 SWAP1 SWAP2 KECCAK256 ADD SLOAD PUSH1 0x1 PUSH1 0x1 PUSH1 0xA0 SHL SUB AND SWAP3 SWAP2 POP POP JUMP JUMPDEST PUSH2 0xB1E PUSH2 0xD92 JUMP JUMPDEST POP POP POP JUMP JUMPDEST PUSH2 0xB2B PUSH2 0xD92 JUMP JUMPDEST PUSH1 0x1 PUSH1 0x1 PUSH1 0xA0 SHL SUB DUP2 AND PUSH2 0xB90 JUMPI PUSH1 0x40 MLOAD PUSH3 0x461BCD PUSH1 0xE5 SHL DUP2 MSTORE PUSH1 0x20 PUSH1 0x4 DUP3 ADD MSTORE PUSH1 0x26 PUSH1 0x24 DUP3 ADD MSTORE PUSH32 0x4F776E61626C653A206E6577206F776E657220697320746865207A65726F2061 PUSH1 0x44 DUP3 ADD MSTORE PUSH6 0x646472657373 PUSH1 0xD0 SHL PUSH1 0x64 DUP3 ADD MSTORE PUSH1 0x84 ADD PUSH2 0x76E JUMP JUMPDEST PUSH2 0xB99 DUP2 PUSH2 0xDEC JUMP JUMPDEST POP JUMP JUMPDEST PUSH1 0x0 DUP2 DUP4 LT PUSH2 0xBAA JUMPI PUSH1 0x0 DUP1 REVERT JUMPDEST DUP3 DUP5 LT ISZERO DUP1 ISZERO PUSH2 0x453 JUMPI POP POP SWAP1 SWAP2 GT ISZERO SWAP2 SWAP1 POP JUMP JUMPDEST PUSH1 0x2 PUSH1 0x4 SLOAD PUSH1 0x1 PUSH1 0xA0 SHL SWAP1 DIV PUSH1 0xFF AND PUSH1 0x2 DUP2 GT ISZERO PUSH2 0xBDF JUMPI PUSH2 0xBDF PUSH2 0x1067 JUMP JUMPDEST EQ PUSH2 0xC1E JUMPI PUSH1 0x40 MLOAD PUSH3 0x461BCD PUSH1 0xE5 SHL DUP2 MSTORE PUSH1 0x20 PUSH1 0x4 DUP3 ADD MSTORE PUSH1 0xF PUSH1 0x24 DUP3 ADD MSTORE PUSH15 0x4E6F74207468657265207965742121 PUSH1 0x88 SHL PUSH1 0x44 DUP3 ADD MSTORE PUSH1 0x64 ADD PUSH2 0x76E JUMP JUMPDEST PUSH1 0x0 DUP2 MLOAD GT PUSH2 0xC63 JUMPI PUSH1 0x40 MLOAD PUSH3 0x461BCD PUSH1 0xE5 SHL DUP2 MSTORE PUSH1 0x20 PUSH1 0x4 DUP3 ADD MSTORE PUSH1 0x11 PUSH1 0x24 DUP3 ADD MSTORE PUSH17 0x52616E646F6D206E6F7420666F756E6421 PUSH1 0x78 SHL PUSH1 0x44 DUP3 ADD MSTORE PUSH1 0x64 ADD PUSH2 0x76E JUMP JUMPDEST PUSH1 0x0 PUSH1 0x2 DUP1 SLOAD SWAP1 POP DUP3 PUSH1 0x0 DUP2 MLOAD DUP2 LT PUSH2 0xC7E JUMPI PUSH2 0xC7E PUSH2 0x12FD JUMP JUMPDEST PUSH1 0x20 MUL PUSH1 0x20 ADD ADD MLOAD PUSH2 0xC90 SWAP2 SWAP1 PUSH2 0x12D0 JUMP JUMPDEST SWAP1 POP PUSH1 0x2 DUP2 DUP2 SLOAD DUP2 LT PUSH2 0xCA5 JUMPI PUSH2 0xCA5 PUSH2 0x12FD JUMP JUMPDEST PUSH1 0x0 SWAP2 DUP3 MSTORE PUSH1 0x20 DUP3 KECCAK256 ADD SLOAD PUSH1 0x4 DUP1 SLOAD PUSH1 0x1 PUSH1 0x1 PUSH1 0xA8 SHL SUB NOT AND PUSH1 0x1 PUSH1 0x1 PUSH1 0xA0 SHL SUB SWAP1 SWAP3 AND SWAP2 DUP3 OR SWAP1 SSTORE PUSH1 0x40 MLOAD SWAP1 SWAP2 PUSH32 0x794919B0F484B8E90B1B817AC7F880F846FBD8A9813DEE2A378E820DB094E3D1 SWAP2 LOG2 PUSH1 0x4 SLOAD PUSH1 0x40 MLOAD PUSH1 0x0 SWAP2 PUSH1 0x1 PUSH1 0x1 PUSH1 0xA0 SHL SUB AND SWAP1 SELFBALANCE SWAP1 DUP4 DUP2 DUP2 DUP2 DUP6 DUP8 GAS CALL SWAP3 POP POP POP RETURNDATASIZE DUP1 PUSH1 0x0 DUP2 EQ PUSH2 0xD43 JUMPI PUSH1 0x40 MLOAD SWAP2 POP PUSH1 0x1F NOT PUSH1 0x3F RETURNDATASIZE ADD AND DUP3 ADD PUSH1 0x40 MSTORE RETURNDATASIZE DUP3 MSTORE RETURNDATASIZE PUSH1 0x0 PUSH1 0x20 DUP5 ADD RETURNDATACOPY PUSH2 0xD48 JUMP JUMPDEST PUSH1 0x60 SWAP2 POP JUMPDEST POP POP SWAP1 POP DUP1 PUSH2 0xD6A JUMPI PUSH1 0x40 MLOAD PUSH4 0x9245F215 PUSH1 0xE0 SHL DUP2 MSTORE PUSH1 0x4 ADD PUSH1 0x40 MLOAD DUP1 SWAP2 SUB SWAP1 REVERT JUMPDEST PUSH1 0x40 DUP1 MLOAD PUSH1 0x0 DUP2 MSTORE PUSH1 0x20 DUP2 ADD SWAP2 DUP3 SWAP1 MSTORE MLOAD PUSH2 0xD87 SWAP2 PUSH1 0x2 SWAP2 PUSH2 0xE3C JUMP JUMPDEST POP POP TIMESTAMP PUSH1 0x5 SSTORE POP POP POP JUMP JUMPDEST PUSH1 0x0 SLOAD PUSH1 0x1 PUSH1 0x1 PUSH1 0xA0 SHL SUB AND CALLER EQ PUSH2 0xAA6 JUMPI PUSH1 0x40 MLOAD PUSH3 0x461BCD PUSH1 0xE5 SHL DUP2 MSTORE PUSH1 0x20 PUSH1 0x4 DUP3 ADD DUP2 SWAP1 MSTORE PUSH1 0x24 DUP3 ADD MSTORE PUSH32 0x4F776E61626C653A2063616C6C6572206973206E6F7420746865206F776E6572 PUSH1 0x44 DUP3 ADD MSTORE PUSH1 0x64 ADD PUSH2 0x76E JUMP JUMPDEST PUSH1 0x0 DUP1 SLOAD PUSH1 0x1 PUSH1 0x1 PUSH1 0xA0 SHL SUB DUP4 DUP2 AND PUSH1 0x1 PUSH1 0x1 PUSH1 0xA0 SHL SUB NOT DUP4 AND DUP2 OR DUP5 SSTORE PUSH1 0x40 MLOAD SWAP2 SWAP1 SWAP3 AND SWAP3 DUP4 SWAP2 PUSH32 0x8BE0079C531659141344CD1FD0A4F28419497F9722A3DAAFE3B4186F6B6457E0 SWAP2 SWAP1 LOG3 POP POP JUMP JUMPDEST DUP3 DUP1 SLOAD DUP3 DUP3 SSTORE SWAP1 PUSH1 0x0 MSTORE PUSH1 0x20 PUSH1 0x0 KECCAK256 SWAP1 DUP2 ADD SWAP3 DUP3 ISZERO PUSH2 0xE91 JUMPI SWAP2 PUSH1 0x20 MUL DUP3 ADD JUMPDEST DUP3 DUP2 GT ISZERO PUSH2 0xE91 JUMPI DUP3 MLOAD DUP3 SLOAD PUSH1 0x1 PUSH1 0x1 PUSH1 0xA0 SHL SUB NOT AND PUSH1 0x1 PUSH1 0x1 PUSH1 0xA0 SHL SUB SWAP1 SWAP2 AND OR DUP3 SSTORE PUSH1 0x20 SWAP1 SWAP3 ADD SWAP2 PUSH1 0x1 SWAP1 SWAP2 ADD SWAP1 PUSH2 0xE5C JUMP JUMPDEST POP PUSH2 0xE9D SWAP3 SWAP2 POP PUSH2 0xEA1 JUMP JUMPDEST POP SWAP1 JUMP JUMPDEST JUMPDEST DUP1 DUP3 GT ISZERO PUSH2 0xE9D JUMPI PUSH1 0x0 DUP2 SSTORE PUSH1 0x1 ADD PUSH2 0xEA2 JUMP JUMPDEST DUP1 CALLDATALOAD PUSH1 0x1 PUSH1 0x1 PUSH1 0xA0 SHL SUB DUP2 AND DUP2 EQ PUSH2 0xECD JUMPI PUSH1 0x0 DUP1 REVERT JUMPDEST SWAP2 SWAP1 POP JUMP JUMPDEST PUSH1 0x0 DUP1 PUSH1 0x40 DUP4 DUP6 SUB SLT ISZERO PUSH2 0xEE5 JUMPI PUSH1 0x0 DUP1 REVERT JUMPDEST PUSH2 0xEEE DUP4 PUSH2 0xEB6 JUMP JUMPDEST SWAP5 PUSH1 0x20 SWAP4 SWAP1 SWAP4 ADD CALLDATALOAD SWAP4 POP POP POP JUMP JUMPDEST PUSH4 0x4E487B71 PUSH1 0xE0 SHL PUSH1 0x0 MSTORE PUSH1 0x41 PUSH1 0x4 MSTORE PUSH1 0x24 PUSH1 0x0 REVERT JUMPDEST PUSH1 0x40 MLOAD PUSH1 0x1F DUP3 ADD PUSH1 0x1F NOT AND DUP2 ADD PUSH8 0xFFFFFFFFFFFFFFFF DUP2 GT DUP3 DUP3 LT OR ISZERO PUSH2 0xF3B JUMPI PUSH2 0xF3B PUSH2 0xEFC JUMP JUMPDEST PUSH1 0x40 MSTORE SWAP2 SWAP1 POP JUMP JUMPDEST PUSH1 0x0 DUP1 PUSH1 0x40 DUP4 DUP6 SUB SLT ISZERO PUSH2 0xF56 JUMPI PUSH1 0x0 DUP1 REVERT JUMPDEST DUP3 CALLDATALOAD SWAP2 POP PUSH1 0x20 DUP1 DUP5 ADD CALLDATALOAD PUSH8 0xFFFFFFFFFFFFFFFF DUP1 DUP3 GT ISZERO PUSH2 0xF76 JUMPI PUSH1 0x0 DUP1 REVERT JUMPDEST DUP2 DUP7 ADD SWAP2 POP DUP7 PUSH1 0x1F DUP4 ADD SLT PUSH2 0xF8A JUMPI PUSH1 0x0 DUP1 REVERT JUMPDEST DUP2 CALLDATALOAD DUP2 DUP2 GT ISZERO PUSH2 0xF9C JUMPI PUSH2 0xF9C PUSH2 0xEFC JUMP JUMPDEST DUP1 PUSH1 0x5 SHL SWAP2 POP PUSH2 0xFAD DUP5 DUP4 ADD PUSH2 0xF12 JUMP JUMPDEST DUP2 DUP2 MSTORE SWAP2 DUP4 ADD DUP5 ADD SWAP2 DUP5 DUP2 ADD SWAP1 DUP10 DUP5 GT ISZERO PUSH2 0xFC7 JUMPI PUSH1 0x0 DUP1 REVERT JUMPDEST SWAP4 DUP6 ADD SWAP4 JUMPDEST DUP4 DUP6 LT ISZERO PUSH2 0xFE5 JUMPI DUP5 CALLDATALOAD DUP3 MSTORE SWAP4 DUP6 ADD SWAP4 SWAP1 DUP6 ADD SWAP1 PUSH2 0xFCC JUMP JUMPDEST DUP1 SWAP7 POP POP POP POP POP POP POP SWAP3 POP SWAP3 SWAP1 POP JUMP JUMPDEST PUSH1 0x0 DUP1 PUSH1 0x20 DUP4 DUP6 SUB SLT ISZERO PUSH2 0x1008 JUMPI PUSH1 0x0 DUP1 REVERT JUMPDEST DUP3 CALLDATALOAD PUSH8 0xFFFFFFFFFFFFFFFF DUP1 DUP3 GT ISZERO PUSH2 0x1020 JUMPI PUSH1 0x0 DUP1 REVERT JUMPDEST DUP2 DUP6 ADD SWAP2 POP DUP6 PUSH1 0x1F DUP4 ADD SLT PUSH2 0x1034 JUMPI PUSH1 0x0 DUP1 REVERT JUMPDEST DUP2 CALLDATALOAD DUP2 DUP2 GT ISZERO PUSH2 0x1043 JUMPI PUSH1 0x0 DUP1 REVERT JUMPDEST DUP7 PUSH1 0x20 DUP3 DUP6 ADD ADD GT ISZERO PUSH2 0x1055 JUMPI PUSH1 0x0 DUP1 REVERT JUMPDEST PUSH1 0x20 SWAP3 SWAP1 SWAP3 ADD SWAP7 SWAP2 SWAP6 POP SWAP1 SWAP4 POP POP POP POP JUMP JUMPDEST PUSH4 0x4E487B71 PUSH1 0xE0 SHL PUSH1 0x0 MSTORE PUSH1 0x21 PUSH1 0x4 MSTORE PUSH1 0x24 PUSH1 0x0 REVERT JUMPDEST PUSH1 0x20 DUP2 ADD PUSH1 0x3 DUP4 LT PUSH2 0x109F JUMPI PUSH4 0x4E487B71 PUSH1 0xE0 SHL PUSH1 0x0 MSTORE PUSH1 0x21 PUSH1 0x4 MSTORE PUSH1 0x24 PUSH1 0x0 REVERT JUMPDEST SWAP2 SWAP1 MSTORE SWAP1 JUMP JUMPDEST PUSH1 0x0 PUSH1 0x20 DUP1 DUP4 DUP6 SUB SLT ISZERO PUSH2 0x10B8 JUMPI PUSH1 0x0 DUP1 REVERT JUMPDEST DUP3 CALLDATALOAD PUSH8 0xFFFFFFFFFFFFFFFF DUP1 DUP3 GT ISZERO PUSH2 0x10D0 JUMPI PUSH1 0x0 DUP1 REVERT JUMPDEST DUP2 DUP6 ADD SWAP2 POP DUP6 PUSH1 0x1F DUP4 ADD SLT PUSH2 0x10E4 JUMPI PUSH1 0x0 DUP1 REVERT JUMPDEST DUP2 CALLDATALOAD DUP2 DUP2 GT ISZERO PUSH2 0x10F6 JUMPI PUSH2 0x10F6 PUSH2 0xEFC JUMP JUMPDEST PUSH2 0x1108 PUSH1 0x1F DUP3 ADD PUSH1 0x1F NOT AND DUP6 ADD PUSH2 0xF12 JUMP JUMPDEST SWAP2 POP DUP1 DUP3 MSTORE DUP7 DUP5 DUP3 DUP6 ADD ADD GT ISZERO PUSH2 0x111E JUMPI PUSH1 0x0 DUP1 REVERT JUMPDEST DUP1 DUP5 DUP5 ADD DUP6 DUP5 ADD CALLDATACOPY PUSH1 0x0 SWAP1 DUP3 ADD SWAP1 SWAP4 ADD SWAP3 SWAP1 SWAP3 MSTORE POP SWAP4 SWAP3 POP POP POP JUMP JUMPDEST DUP3 ISZERO ISZERO DUP2 MSTORE PUSH1 0x0 PUSH1 0x20 PUSH1 0x40 DUP2 DUP5 ADD MSTORE DUP4 MLOAD DUP1 PUSH1 0x40 DUP6 ADD MSTORE PUSH1 0x0 JUMPDEST DUP2 DUP2 LT ISZERO PUSH2 0x1170 JUMPI DUP6 DUP2 ADD DUP4 ADD MLOAD DUP6 DUP3 ADD PUSH1 0x60 ADD MSTORE DUP3 ADD PUSH2 0x1154 JUMP JUMPDEST DUP2 DUP2 GT ISZERO PUSH2 0x1182 JUMPI PUSH1 0x0 PUSH1 0x60 DUP4 DUP8 ADD ADD MSTORE JUMPDEST POP PUSH1 0x1F ADD PUSH1 0x1F NOT AND SWAP3 SWAP1 SWAP3 ADD PUSH1 0x60 ADD SWAP5 SWAP4 POP POP POP POP JUMP JUMPDEST PUSH1 0x0 PUSH1 0x20 DUP3 DUP5 SUB SLT ISZERO PUSH2 0x11AB JUMPI PUSH1 0x0 DUP1 REVERT JUMPDEST POP CALLDATALOAD SWAP2 SWAP1 POP JUMP JUMPDEST PUSH1 0x0 DUP1 PUSH1 0x0 PUSH1 0x60 DUP5 DUP7 SUB SLT ISZERO PUSH2 0x11C7 JUMPI PUSH1 0x0 DUP1 REVERT JUMPDEST PUSH2 0x11D0 DUP5 PUSH2 0xEB6 JUMP JUMPDEST SWAP6 PUSH1 0x20 DUP6 ADD CALLDATALOAD SWAP6 POP PUSH1 0x40 SWAP1 SWAP5 ADD CALLDATALOAD SWAP4 SWAP3 POP POP POP JUMP JUMPDEST PUSH1 0x0 PUSH1 0x20 DUP3 DUP5 SUB SLT ISZERO PUSH2 0x11F7 JUMPI PUSH1 0x0 DUP1 REVERT JUMPDEST PUSH2 0x1200 DUP3 PUSH2 0xEB6 JUMP JUMPDEST SWAP4 SWAP3 POP POP POP JUMP JUMPDEST DUP1 MLOAD PUSH10 0xFFFFFFFFFFFFFFFFFFFF DUP2 AND DUP2 EQ PUSH2 0xECD JUMPI PUSH1 0x0 DUP1 REVERT JUMPDEST PUSH1 0x0 DUP1 PUSH1 0x0 DUP1 PUSH1 0x0 PUSH1 0xA0 DUP7 DUP9 SUB SLT ISZERO PUSH2 0x1239 JUMPI PUSH1 0x0 DUP1 REVERT JUMPDEST PUSH2 0x1242 DUP7 PUSH2 0x1207 JUMP JUMPDEST SWAP5 POP PUSH1 0x20 DUP7 ADD MLOAD SWAP4 POP PUSH1 0x40 DUP7 ADD MLOAD SWAP3 POP PUSH1 0x60 DUP7 ADD MLOAD SWAP2 POP PUSH2 0x1265 PUSH1 0x80 DUP8 ADD PUSH2 0x1207 JUMP JUMPDEST SWAP1 POP SWAP3 SWAP6 POP SWAP3 SWAP6 SWAP1 SWAP4 POP JUMP JUMPDEST PUSH4 0x4E487B71 PUSH1 0xE0 SHL PUSH1 0x0 MSTORE PUSH1 0x11 PUSH1 0x4 MSTORE PUSH1 0x24 PUSH1 0x0 REVERT JUMPDEST PUSH1 0x0 DUP2 PUSH1 0x0 NOT DIV DUP4 GT DUP3 ISZERO ISZERO AND ISZERO PUSH2 0x12A1 JUMPI PUSH2 0x12A1 PUSH2 0x1271 JUMP JUMPDEST POP MUL SWAP1 JUMP JUMPDEST PUSH4 0x4E487B71 PUSH1 0xE0 SHL PUSH1 0x0 MSTORE PUSH1 0x12 PUSH1 0x4 MSTORE PUSH1 0x24 PUSH1 0x0 REVERT JUMPDEST PUSH1 0x0 DUP3 PUSH2 0x12CB JUMPI PUSH2 0x12CB PUSH2 0x12A6 JUMP JUMPDEST POP DIV SWAP1 JUMP JUMPDEST PUSH1 0x0 DUP3 PUSH2 0x12DF JUMPI PUSH2 0x12DF PUSH2 0x12A6 JUMP JUMPDEST POP MOD SWAP1 JUMP JUMPDEST PUSH1 0x0 PUSH1 0x20 DUP3 DUP5 SUB SLT ISZERO PUSH2 0x12F6 JUMPI PUSH1 0x0 DUP1 REVERT JUMPDEST POP MLOAD SWAP2 SWAP1 POP JUMP JUMPDEST PUSH4 0x4E487B71 PUSH1 0xE0 SHL PUSH1 0x0 MSTORE PUSH1 0x32 PUSH1 0x4 MSTORE PUSH1 0x24 PUSH1 0x0 REVERT JUMPDEST PUSH1 0x0 DUP3 NOT DUP3 GT ISZERO PUSH2 0x1326 JUMPI PUSH2 0x1326 PUSH2 0x1271 JUMP JUMPDEST POP ADD SWAP1 JUMP JUMPDEST PUSH1 0x0 PUSH1 0x0 NOT DUP3 EQ ISZERO PUSH2 0x133F JUMPI PUSH2 0x133F PUSH2 0x1271 JUMP JUMPDEST POP PUSH1 0x1 ADD SWAP1 JUMP JUMPDEST PUSH1 0x0 DUP3 DUP3 LT ISZERO PUSH2 0x1358 JUMPI PUSH2 0x1358 PUSH2 0x1271 JUMP JUMPDEST POP SUB SWAP1 JUMP INVALID LOG2 PUSH5 0x6970667358 0x22 SLT KECCAK256 0xE0 0xD7 0x21 DUP15 0xC4 0xC5 LT DUP14 0xCB EXP 0xA8 DUP2 SWAP7 0xE2 PUSH10 0x5307F24209DC51F4CF46 0xC8 0xEB 0x28 PUSH27 0x7D75D964736F6C634300080C003300000000000000000000000000 ","sha1":"74f6f505254e9080cd3610d30928a3d4ee5e587c","source":"// SPDX-License-Identifier: MIT\n\npragma solidity ^0.8.7;\npragma experimental ABIEncoderV2;\n\n/** @title A Simple NFT Lottery Contract\n * @author Yoaz Shmider\n * @notice This contract implements Chainlink's V3Aggregator and VRF Consumer Base V2\n * @dev There are few features that needs to be fixed\n */\n\nimport \"@chainlink/contracts/src/v0.8/interfaces/AggregatorV3Interface.sol\";\nimport \"@openzeppelin/contracts/access/Ownable.sol\";\nimport \"@openzeppelin/contracts/token/ERC721/IERC721.sol\";\nimport \"@chainlink/contracts/src/v0.8/interfaces/VRFCoordinatorV2Interface.sol\";\nimport \"@chainlink/contracts/src/v0.8/VRFConsumerBaseV2.sol\";\nimport \"@chainlink/contracts/src/v0.8/ConfirmedOwner.sol\";\nimport \"@chainlink/contracts/src/v0.8/interfaces/KeeperCompatibleInterface.sol\";\n\nerror Lottery__NftValueTooLow();\nerror Lottery__transferTreasuryFailed();\nerror Lottery__CantJoinClosed();\nerror Lottery__UpKeepNotNeeded(\n\tuint256 treasuryBalance,\n\tuint256 playersLength,\n\tuint256 lotteryState\n);\nerror Lottery__NFTValueNotMatch();\n\ncontract Lottery is VRFConsumerBaseV2, Ownable, KeeperCompatibleInterface {\n\t/* --- Types --- */\n\tenum LOTTERY_STATE {\n\t\tOPEN,\n\t\tCLOSED,\n\t\tCALCULATING_WINNER\n\t}\n\n\t// Will hold item information (collection addresss + token id)\n\tstruct nft {\n\t\taddress _tokenAddress;\n\t\tuint256 _tokenId;\n\t\taddress _owner;\n\t}\n\n\t/* --- State Varaibels --- */\n\n\t// Chainlink VRF Varibles\n\tbytes32 private immutable i_gasLane;\n\tuint64 private immutable i_subscriptionId;\n\tuint16 private constant REQUEST_CONFIRMATIONS = 3;\n\tuint32 private immutable i_callbackGasLimit;\n\tuint32 private constant NUM_WORDS = 1;\n\tVRFCoordinatorV2Interface private immutable i_vrfCoordinator;\n\n\t// Lottery Variables\n\tIERC721 internal token;\n\taddress payable[] private s_players; // To keep track of the participants\n\tuint256 private immutable i_initialNFTValue;\n\tAggregatorV3Interface internal ethUsdPriceFeed;\n\taddress payable private s_recentWinner;\n\tLOTTERY_STATE private s_lotteryState;\n\tuint256 private s_lastTimeStamp;\n\tuint256 private immutable i_interval;\n\tnft s_tempToken; // This will be to hold NFT token to evulate rather for evulations of requirements.\n\n\t// Will hold current lottery treasury (all NFTs in lottery pot)\n\tnft[] public s_tresury;\n\t// To keep track of nft's array index to actual NFT item\n\tmapping(bytes32 => nft) private indexToNFT;\n\n\t/* --- Events --- */\n\tevent LotteryEnter(\n\t\taddress indexed player,\n\t\taddress indexed collectionAddress,\n\t\tuint256 indexed tokenId\n\t);\n\tevent requestedLotteryWinner(uint256 requestId);\n\tevent winnerPicked(address indexed winner);\n\n\t/* --- Functions --- */\n\tconstructor(\n\t\taddress _priceFeedAddress,\n\t\taddress _vrfCoordinatorV2,\n\t\tbytes32 _gasLane,\n\t\tuint64 _subscriptionId,\n\t\tuint32 _callbackGasLimit,\n\t\tuint256 _interval\n\t) VRFConsumerBaseV2(_vrfCoordinatorV2) {\n\t\ti_initialNFTValue = 20 * (10**18); // 18 decimals for our starting nft value which is 20 usd\n\t\tethUsdPriceFeed = AggregatorV3Interface(_priceFeedAddress); // get eth to usd price feed instance\n\t\ti_vrfCoordinator = VRFCoordinatorV2Interface(_vrfCoordinatorV2); // get vrfcoordinator instance\n\t\ts_lotteryState = LOTTERY_STATE.CLOSED;\n\t\ti_gasLane = _gasLane;\n\t\ti_subscriptionId = _subscriptionId;\n\t\ti_callbackGasLimit = _callbackGasLimit;\n\t\ts_lastTimeStamp = block.timestamp; // Initiate last block time stamp to the current one when deploying contract\n\t\ti_interval = _interval; // Initate interval based on deplyoing interval logic\n\t}\n\n\t/**\n\t * dev: This is the function that the chainlink keeper will look to return true to update state\n\t * The following should be true in order to return true:\n\t * 1. The time Interval should have passed\n\t * 2. The Lottery should have at least one NFT added to treasury and 1 player\n\t * 3. The Chainlink subscription is funded with Link Token\n\t */\n\tfunction checkUpkeep(\n\t\tbytes memory /*checkData*/\n\t)\n\t\tpublic\n\t\tview\n\t\toverride\n\t\treturns (\n\t\t\tbool upKeepNeeded,\n\t\t\tbytes memory /*performData*/\n\t\t)\n\t{\n\t\tbool isOpen = (s_lotteryState == LOTTERY_STATE.OPEN);\n\t\tbool timePassed = ((block.timestamp - s_lastTimeStamp) >= i_interval);\n\t\tbool hasPlayers = (s_players.length > 0);\n\t\tbool hasBalance = (s_tresury.length > 0); // Check for at least one NFT in Lottery treasury\n\t\tupKeepNeeded = (isOpen && timePassed && hasPlayers && hasBalance);\n\t\treturn (upKeepNeeded, \"0x\");\n\t}\n\n\t/**\n\t * dev: This the function that will perform the upkeep based upon interval and is acting as endLottery function\n\t */\n\tfunction performUpkeep(\n\t\tbytes calldata /* performData */\n\t) external override {\n\t\t(bool upKeepNeeded, ) = checkUpkeep(new bytes(0));\n\t\tif (!upKeepNeeded) {\n\t\t\t// error with information to understand why up keep is not required\n\t\t\trevert Lottery__UpKeepNotNeeded(\n\t\t\t\ts_tresury.length,\n\t\t\t\ts_players.length,\n\t\t\t\tuint256(s_lotteryState)\n\t\t\t);\n\t\t}\n\n\t\tuint256 requestId = i_vrfCoordinator.requestRandomWords(\n\t\t\ti_gasLane,\n\t\t\ti_subscriptionId,\n\t\t\tREQUEST_CONFIRMATIONS,\n\t\t\ti_callbackGasLimit,\n\t\t\tNUM_WORDS\n\t\t);\n\n\t\temit requestedLotteryWinner(requestId);\n\t}\n\n\tfunction enterLottery(address _collectionAddress, uint256 _tokenId)\n\t\tpublic\n\t\tpayable\n\t{\n\t\tif (s_lotteryState == LOTTERY_STATE.CLOSED) {\n\t\t\trevert Lottery__CantJoinClosed();\n\t\t}\n\t\t// require(\n\t\t// \ttoken._isApprovedOrOwner(_msgSender(), _tokenId),\n\t\t// \t\"ERC721: transfer caller is not owner nor approved\"\n\t\t// );\n\t\ttoken = IERC721(_collectionAddress);\n\t\t// Assign storage tempToken var with current stats\n\t\ts_tempToken._tokenAddress = _collectionAddress;\n\t\ts_tempToken._tokenId = _tokenId;\n\t\ts_tempToken._owner = msg.sender;\n\t\t// 1st added NFT to lottery treasury\n\t\tif (s_tresury.length <= 0) {\n\t\t\tif (getNFTValue() >= i_initialNFTValue) {\n\t\t\t\trevert Lottery__NftValueTooLow();\n\t\t\t}\n\t\t}\n\t\t// Not 1st added NFT to lottery treasury\n\t\telse {\n\t\t\t// NFT Value should be in lottery pot range (15% margin up or down)\n\t\t\tif (\n\t\t\t\t!inBetween(\n\t\t\t\t\tgetNFTValue(),\n\t\t\t\t\t85 % getTreasuryAvg(),\n\t\t\t\t\t115 % getTreasuryAvg()\n\t\t\t\t)\n\t\t\t) {\n\t\t\t\trevert Lottery__NFTValueNotMatch();\n\t\t\t} //To implement getNFTValue & getTreasuryAvg\n\t\t}\n\t\ttoken.transferFrom(msg.sender, address(this), _tokenId);\n\t\ts_tresury.push(s_tempToken); //push to NFT Treasury array\n\t\ts_players.push(payable(msg.sender)); // push current player to our players array\n\t\temit LotteryEnter(msg.sender, _collectionAddress, _tokenId);\n\t}\n\n\tfunction inBetween(\n\t\tuint256 value,\n\t\tuint256 min,\n\t\tuint256 max\n\t) internal pure returns (bool) {\n\t\trequire(min < max);\n\t\treturn value >= min && value <= max;\n\t}\n\n\t// Client will send token value using Moralis api and set NFT value\n\tfunction setNFTValue(\n\t\taddress _collectionAddress,\n\t\tuint256 _tokenId,\n\t\tuint256 _value\n\t) public onlyOwner {}\n\n\tfunction fulfillRandomWords(\n\t\tuint256, /*_requestId*/\n\t\tuint256[] memory _randomWords\n\t) internal override {\n\t\trequire(\n\t\t\ts_lotteryState == LOTTERY_STATE.CALCULATING_WINNER,\n\t\t\t\"Not there yet!!\"\n\t\t);\n\t\trequire(_randomWords.length > 0, \"Random not found!\");\n\t\tuint256 indexOfWinner = _randomWords[0] % s_players.length;\n\t\ts_recentWinner = s_players[indexOfWinner];\n\t\ts_lotteryState = LOTTERY_STATE.OPEN;\n\t\temit winnerPicked(s_recentWinner);\n\t\t(bool success, ) = s_recentWinner.call{ value: address(this).balance }(\n\t\t\t\"\"\n\t\t); // transfer the latest winner with the lottery balance\n\t\tif (!success) {\n\t\t\trevert Lottery__transferTreasuryFailed();\n\t\t}\n\n\t\t// reset lottery stats\n\t\ts_players = new address payable[](0); // reset players array size 0\n\t\t// s_tresury = new nft[](0);\n\t\ts_lastTimeStamp = block.timestamp; //reset last time stamp\n\t}\n\n\t/* --- View / Pure Functions --- */\n\tfunction getTreasuryAvg() public returns (uint256) {\n\t\tuint256 avg = 0;\n\t\tfor (\n\t\t\tuint256 nftTreasuryIndex = 0;\n\t\t\tnftTreasuryIndex <= s_tresury.length;\n\t\t\tnftTreasuryIndex++\n\t\t) {\n\t\t\ts_tempToken = s_tresury[nftTreasuryIndex];\n\t\t\tavg += getNFTValue();\n\t\t}\n\t\treturn avg;\n\t}\n\n\tfunction getPlayer(uint256 index) public view returns (address) {\n\t\treturn s_players[index];\n\t}\n\n\tfunction getRecenetWinner() public view returns (address) {\n\t\treturn s_recentWinner;\n\t}\n\n\t// Returns value in USD of an NFT\n\tfunction getNFTValue() public pure returns (uint256) {\n\t\treturn 1;\n\t}\n\n\tfunction getLotteryTreasury() public view returns (uint256) {\n\t\tuint256 balance = address(this).balance;\n\t\treturn balance;\n\t}\n\n\tfunction getNumOfParticipants() public view returns (uint256) {\n\t\treturn s_players.length;\n\t}\n\n\tfunction getEntranceFee() public view returns (uint256) {\n\t\t(, int256 price, , , ) = ethUsdPriceFeed.latestRoundData(); // fetching current eth usd price 8 decimals\n\t\tuint256 adjustedPrice = uint256(price) * 10**10; // now price will be represented in 18 decimals as well\n\t\tuint256 costToEnter = (i_initialNFTValue * 10**18) / adjustedPrice; // math to get our result in 18 decimals as well\n\t\treturn costToEnter;\n\t}\n\n\tfunction getLotteryState() public view returns (LOTTERY_STATE) {\n\t\treturn s_lotteryState;\n\t}\n\n\tfunction getNumWords() public pure returns (uint256) {\n\t\treturn NUM_WORDS;\n\t}\n\n\tfunction getRequestConfirmations() public pure returns (uint256) {\n\t\treturn REQUEST_CONFIRMATIONS;\n\t}\n\n\tfunction getLatestTimeStamp() public view returns (uint256) {\n\t\treturn s_lastTimeStamp;\n\t}\n}\n","sourcePath":"contracts/Lottery.sol","type":"contract","deployment":{"address":"0xb029740F17A8184130011e9f4DA942Ec6cA3183f","chainid":"5","blockHeight":8618511}}